:1009A40009083000000000000000000911300000B8
:0609B4000000000000003D
:0A09BB007F107E2731C57F107E27D4
:0B09C500EF1FAC0670011E4C70F62204
:10080000751A00751B01E4F51CF51DF520F521F5A1
:1008100022F523C280C281C282C283C284C285C241
:1008200086C287C2A0C290C291C292C293C294C231
:1008300095C296C297C2A1D2B6C2B7C2B5E4F5209E
:10084000F521F582F583F51CF51DFAFBE51B640126
:10085000451A7006D2A6C2A7800EE51BB4FF09E5B3
:100860001AB4FF04C2A6D2A730B4CCAE1AAF1B7C18
:10087000FF7DFF31D08E1A8F1BC2B630A501A33089
:10088000A402A3A330A304A3A3A3A330A20B7408C0
:100890002582F582E43583F583858322858223C30F
:1008A000E5829403E58364809480500BE4F51CF5A5
:1008B0001DAA83AB828040C3E5829406E5836480F1
:1008C0009480500C751C00751D01E58224FD801775
:1008D000C3E5829409E583648094805012751C00FE
:1008E000751D02E58224FAFBE58334FFFA8008D205
:1008F000B5752000752101E5214520701174112581
:1009000023F8E6B430067631D2B78002D2B5C2B64B
:080910001209BB1209BB0137FB
:03000000020918DA
:0C091800787FE4F6D8FD75812302095FAA
:1009D000EF8DF0A4A8F0CF8CF0A428CE8DF0A42E3B
:0209E000FE22F5
:10092400020800E493A3F8E493A34003F68001F2E1
:1009340008DFF48029E493A3F85407240CC8C333D4
:10094400C4540F4420C8834004F456800146F6DFA3
:10095400E4800B01020408102040809009A4E47E86
:10096400019360BCA3FF543F30E509541FFEE49398
:10097400A360010ECF54C025E060A840B8E493A35F
:10098400FAE493A3F8E493A3C8C582C8CAC583CA8A
:10099400F0A3C8C582C8CAC583CADFE9DEE780BE42
:0109BA00003C
:00000001FF
