:0C08EA00010B00010800010A00010900D8
:03000B0002088C5C
:10088C00C0E0C0F0C0D0050BE50B75F0C884E5F0F6
:10089C0070330508F50BE50875F0C884E5F0702594
:1008AC00050AF508E50A75F0C884E5F07017F50A35
:1008BC00E5097007750901D281800AE509B40105C3
:0C08CC00750900C281D0D0D0F0D0E0321D
:1008D800E58954F04401F589D2A9D28CD2AFC282FD
:0208E80080FC92
:03000000020800F3
:0C080000787FE4F6D8FD75810B020847F4
:10080C000208D8E493A3F8E493A34003F68001F222
:10081C0008DFF48029E493A3F85407240CC8C333ED
:10082C00C4540F4420C8834004F456800146F6DFBC
:10083C00E4800B01020408102040809008EAE47E5A
:10084C00019360BCA3FF543F30E509541FFEE493B1
:10085C00A360010ECF54C025E060A840B8E493A378
:10086C00FAE493A3F8E493A3C8C582C8CAC583CAA3
:10087C00F0A3C8C582C8CAC583CADFE9DEE780BE5B
:0108F6000001
:00000001FF
